{
  "contractName": "MyNFT",
  "abi": [
    {
      "inputs": [],
      "stateMutability": "nonpayable",
      "type": "constructor"
    },
    {
      "inputs": [
        {
          "internalType": "address",
          "name": "sender",
          "type": "address"
        },
        {
          "internalType": "uint256",
          "name": "tokenId",
          "type": "uint256"
        },
        {
          "internalType": "address",
          "name": "owner",
          "type": "address"
        }
      ],
      "name": "ERC721IncorrectOwner",
      "type": "error"
    },
    {
      "inputs": [
        {
          "internalType": "address",
          "name": "operator",
          "type": "address"
        },
        {
          "internalType": "uint256",
          "name": "tokenId",
          "type": "uint256"
        }
      ],
      "name": "ERC721InsufficientApproval",
      "type": "error"
    },
    {
      "inputs": [
        {
          "internalType": "address",
          "name": "approver",
          "type": "address"
        }
      ],
      "name": "ERC721InvalidApprover",
      "type": "error"
    },
    {
      "inputs": [
        {
          "internalType": "address",
          "name": "operator",
          "type": "address"
        }
      ],
      "name": "ERC721InvalidOperator",
      "type": "error"
    },
    {
      "inputs": [
        {
          "internalType": "address",
          "name": "owner",
          "type": "address"
        }
      ],
      "name": "ERC721InvalidOwner",
      "type": "error"
    },
    {
      "inputs": [
        {
          "internalType": "address",
          "name": "receiver",
          "type": "address"
        }
      ],
      "name": "ERC721InvalidReceiver",
      "type": "error"
    },
    {
      "inputs": [
        {
          "internalType": "address",
          "name": "sender",
          "type": "address"
        }
      ],
      "name": "ERC721InvalidSender",
      "type": "error"
    },
    {
      "inputs": [
        {
          "internalType": "uint256",
          "name": "tokenId",
          "type": "uint256"
        }
      ],
      "name": "ERC721NonexistentToken",
      "type": "error"
    },
    {
      "inputs": [
        {
          "internalType": "address",
          "name": "owner",
          "type": "address"
        }
      ],
      "name": "OwnableInvalidOwner",
      "type": "error"
    },
    {
      "inputs": [
        {
          "internalType": "address",
          "name": "account",
          "type": "address"
        }
      ],
      "name": "OwnableUnauthorizedAccount",
      "type": "error"
    },
    {
      "anonymous": false,
      "inputs": [
        {
          "indexed": true,
          "internalType": "address",
          "name": "owner",
          "type": "address"
        },
        {
          "indexed": true,
          "internalType": "address",
          "name": "approved",
          "type": "address"
        },
        {
          "indexed": true,
          "internalType": "uint256",
          "name": "tokenId",
          "type": "uint256"
        }
      ],
      "name": "Approval",
      "type": "event"
    },
    {
      "anonymous": false,
      "inputs": [
        {
          "indexed": true,
          "internalType": "address",
          "name": "owner",
          "type": "address"
        },
        {
          "indexed": true,
          "internalType": "address",
          "name": "operator",
          "type": "address"
        },
        {
          "indexed": false,
          "internalType": "bool",
          "name": "approved",
          "type": "bool"
        }
      ],
      "name": "ApprovalForAll",
      "type": "event"
    },
    {
      "anonymous": false,
      "inputs": [
        {
          "indexed": false,
          "internalType": "uint256",
          "name": "_fromTokenId",
          "type": "uint256"
        },
        {
          "indexed": false,
          "internalType": "uint256",
          "name": "_toTokenId",
          "type": "uint256"
        }
      ],
      "name": "BatchMetadataUpdate",
      "type": "event"
    },
    {
      "anonymous": false,
      "inputs": [
        {
          "indexed": false,
          "internalType": "uint256",
          "name": "_tokenId",
          "type": "uint256"
        }
      ],
      "name": "MetadataUpdate",
      "type": "event"
    },
    {
      "anonymous": false,
      "inputs": [
        {
          "indexed": true,
          "internalType": "address",
          "name": "previousOwner",
          "type": "address"
        },
        {
          "indexed": true,
          "internalType": "address",
          "name": "newOwner",
          "type": "address"
        }
      ],
      "name": "OwnershipTransferred",
      "type": "event"
    },
    {
      "anonymous": false,
      "inputs": [
        {
          "indexed": true,
          "internalType": "address",
          "name": "from",
          "type": "address"
        },
        {
          "indexed": true,
          "internalType": "address",
          "name": "to",
          "type": "address"
        },
        {
          "indexed": true,
          "internalType": "uint256",
          "name": "tokenId",
          "type": "uint256"
        }
      ],
      "name": "Transfer",
      "type": "event"
    },
    {
      "inputs": [
        {
          "internalType": "address",
          "name": "to",
          "type": "address"
        },
        {
          "internalType": "uint256",
          "name": "tokenId",
          "type": "uint256"
        }
      ],
      "name": "approve",
      "outputs": [],
      "stateMutability": "nonpayable",
      "type": "function"
    },
    {
      "inputs": [
        {
          "internalType": "address",
          "name": "owner",
          "type": "address"
        }
      ],
      "name": "balanceOf",
      "outputs": [
        {
          "internalType": "uint256",
          "name": "",
          "type": "uint256"
        }
      ],
      "stateMutability": "view",
      "type": "function"
    },
    {
      "inputs": [
        {
          "internalType": "uint256",
          "name": "tokenId",
          "type": "uint256"
        }
      ],
      "name": "getApproved",
      "outputs": [
        {
          "internalType": "address",
          "name": "",
          "type": "address"
        }
      ],
      "stateMutability": "view",
      "type": "function"
    },
    {
      "inputs": [
        {
          "internalType": "address",
          "name": "owner",
          "type": "address"
        },
        {
          "internalType": "address",
          "name": "operator",
          "type": "address"
        }
      ],
      "name": "isApprovedForAll",
      "outputs": [
        {
          "internalType": "bool",
          "name": "",
          "type": "bool"
        }
      ],
      "stateMutability": "view",
      "type": "function"
    },
    {
      "inputs": [],
      "name": "name",
      "outputs": [
        {
          "internalType": "string",
          "name": "",
          "type": "string"
        }
      ],
      "stateMutability": "view",
      "type": "function"
    },
    {
      "inputs": [],
      "name": "owner",
      "outputs": [
        {
          "internalType": "address",
          "name": "",
          "type": "address"
        }
      ],
      "stateMutability": "view",
      "type": "function"
    },
    {
      "inputs": [
        {
          "internalType": "uint256",
          "name": "tokenId",
          "type": "uint256"
        }
      ],
      "name": "ownerOf",
      "outputs": [
        {
          "internalType": "address",
          "name": "",
          "type": "address"
        }
      ],
      "stateMutability": "view",
      "type": "function"
    },
    {
      "inputs": [],
      "name": "renounceOwnership",
      "outputs": [],
      "stateMutability": "nonpayable",
      "type": "function"
    },
    {
      "inputs": [
        {
          "internalType": "address",
          "name": "from",
          "type": "address"
        },
        {
          "internalType": "address",
          "name": "to",
          "type": "address"
        },
        {
          "internalType": "uint256",
          "name": "tokenId",
          "type": "uint256"
        }
      ],
      "name": "safeTransferFrom",
      "outputs": [],
      "stateMutability": "nonpayable",
      "type": "function"
    },
    {
      "inputs": [
        {
          "internalType": "address",
          "name": "from",
          "type": "address"
        },
        {
          "internalType": "address",
          "name": "to",
          "type": "address"
        },
        {
          "internalType": "uint256",
          "name": "tokenId",
          "type": "uint256"
        },
        {
          "internalType": "bytes",
          "name": "data",
          "type": "bytes"
        }
      ],
      "name": "safeTransferFrom",
      "outputs": [],
      "stateMutability": "nonpayable",
      "type": "function"
    },
    {
      "inputs": [
        {
          "internalType": "address",
          "name": "operator",
          "type": "address"
        },
        {
          "internalType": "bool",
          "name": "approved",
          "type": "bool"
        }
      ],
      "name": "setApprovalForAll",
      "outputs": [],
      "stateMutability": "nonpayable",
      "type": "function"
    },
    {
      "inputs": [
        {
          "internalType": "bytes4",
          "name": "interfaceId",
          "type": "bytes4"
        }
      ],
      "name": "supportsInterface",
      "outputs": [
        {
          "internalType": "bool",
          "name": "",
          "type": "bool"
        }
      ],
      "stateMutability": "view",
      "type": "function"
    },
    {
      "inputs": [],
      "name": "symbol",
      "outputs": [
        {
          "internalType": "string",
          "name": "",
          "type": "string"
        }
      ],
      "stateMutability": "view",
      "type": "function"
    },
    {
      "inputs": [],
      "name": "tokenCounter",
      "outputs": [
        {
          "internalType": "uint256",
          "name": "",
          "type": "uint256"
        }
      ],
      "stateMutability": "view",
      "type": "function"
    },
    {
      "inputs": [
        {
          "internalType": "uint256",
          "name": "tokenId",
          "type": "uint256"
        }
      ],
      "name": "tokenURI",
      "outputs": [
        {
          "internalType": "string",
          "name": "",
          "type": "string"
        }
      ],
      "stateMutability": "view",
      "type": "function"
    },
    {
      "inputs": [
        {
          "internalType": "address",
          "name": "from",
          "type": "address"
        },
        {
          "internalType": "address",
          "name": "to",
          "type": "address"
        },
        {
          "internalType": "uint256",
          "name": "tokenId",
          "type": "uint256"
        }
      ],
      "name": "transferFrom",
      "outputs": [],
      "stateMutability": "nonpayable",
      "type": "function"
    },
    {
      "inputs": [
        {
          "internalType": "address",
          "name": "newOwner",
          "type": "address"
        }
      ],
      "name": "transferOwnership",
      "outputs": [],
      "stateMutability": "nonpayable",
      "type": "function"
    },
    {
      "inputs": [
        {
          "internalType": "address",
          "name": "recipient",
          "type": "address"
        },
        {
          "internalType": "string",
          "name": "tokenURI",
          "type": "string"
        }
      ],
      "name": "mintNFT",
      "outputs": [
        {
          "internalType": "uint256",
          "name": "",
          "type": "uint256"
        }
      ],
      "stateMutability": "nonpayable",
      "type": "function"
    }
  ],
  "bytecode": "0x608060405234801561000f575f80fd5b50336040518060400160405280600581526020017f4d794e46540000000000000000000000000000000000000000000000000000008152506040518060400160405280600481526020017f4d4e465400000000000000000000000000000000000000000000000000000000815250815f908161008b9190610427565b50806001908161009b9190610427565b5050505f73ffffffffffffffffffffffffffffffffffffffff168173ffffffffffffffffffffffffffffffffffffffff160361010e575f6040517f1e4fbdf70000000000000000000000000000000000000000000000000000000081526004016101059190610535565b60405180910390fd5b61011d8161012a60201b60201c565b505f60088190555061054e565b5f60075f9054906101000a900473ffffffffffffffffffffffffffffffffffffffff1690508160075f6101000a81548173ffffffffffffffffffffffffffffffffffffffff021916908373ffffffffffffffffffffffffffffffffffffffff1602179055508173ffffffffffffffffffffffffffffffffffffffff168173ffffffffffffffffffffffffffffffffffffffff167f8be0079c531659141344cd1fd0a4f28419497f9722a3daafe3b4186f6b6457e060405160405180910390a35050565b5f81519050919050565b7f4e487b71000000000000000000000000000000000000000000000000000000005f52604160045260245ffd5b7f4e487b71000000000000000000000000000000000000000000000000000000005f52602260045260245ffd5b5f600282049050600182168061026857607f821691505b60208210810361027b5761027a610224565b5b50919050565b5f819050815f5260205f209050919050565b5f6020601f8301049050919050565b5f82821b905092915050565b5f600883026102dd7fffffffffffffffffffffffffffffffffffffffffffffffffffffffffffffffff826102a2565b6102e786836102a2565b95508019841693508086168417925050509392505050565b5f819050919050565b5f819050919050565b5f61032b610326610321846102ff565b610308565b6102ff565b9050919050565b5f819050919050565b61034483610311565b61035861035082610332565b8484546102ae565b825550505050565b5f90565b61036c610360565b61037781848461033b565b505050565b5b8181101561039a5761038f5f82610364565b60018101905061037d565b5050565b601f8211156103df576103b081610281565b6103b984610293565b810160208510156103c8578190505b6103dc6103d485610293565b83018261037c565b50505b505050565b5f82821c905092915050565b5f6103ff5f19846008026103e4565b1980831691505092915050565b5f61041783836103f0565b9150826002028217905092915050565b610430826101ed565b67ffffffffffffffff811115610449576104486101f7565b5b6104538254610251565b61045e82828561039e565b5f60209050601f83116001811461048f575f841561047d578287015190505b610487858261040c565b8655506104ee565b601f19841661049d86610281565b5f5b828110156104c45784890151825560018201915060208501945060208101905061049f565b868310156104e157848901516104dd601f8916826103f0565b8355505b6001600288020188555050505b505050505050565b5f73ffffffffffffffffffffffffffffffffffffffff82169050919050565b5f61051f826104f6565b9050919050565b61052f81610515565b82525050565b5f6020820190506105485f830184610526565b92915050565b6125b88061055b5f395ff3fe608060405234801561000f575f80fd5b5060043610610114575f3560e01c80638da5cb5b116100a0578063c87b56dd1161006f578063c87b56dd146102c8578063d082e381146102f8578063e985e9c514610316578063eacabe1414610346578063f2fde38b1461037657610114565b80638da5cb5b1461025457806395d89b4114610272578063a22cb46514610290578063b88d4fde146102ac57610114565b806323b872dd116100e757806323b872dd146101b257806342842e0e146101ce5780636352211e146101ea57806370a082311461021a578063715018a61461024a57610114565b806301ffc9a71461011857806306fdde0314610148578063081812fc14610166578063095ea7b314610196575b5f80fd5b610132600480360381019061012d9190611a8b565b610392565b60405161013f9190611ad0565b60405180910390f35b6101506103f2565b60405161015d9190611b59565b60405180910390f35b610180600480360381019061017b9190611bac565b610481565b60405161018d9190611c16565b60405180910390f35b6101b060048036038101906101ab9190611c59565b61049c565b005b6101cc60048036038101906101c79190611c97565b6104b2565b005b6101e860048036038101906101e39190611c97565b6105b1565b005b61020460048036038101906101ff9190611bac565b6105d0565b6040516102119190611c16565b60405180910390f35b610234600480360381019061022f9190611ce7565b6105e1565b6040516102419190611d21565b60405180910390f35b610252610697565b005b61025c6106aa565b6040516102699190611c16565b60405180910390f35b61027a6106d2565b6040516102879190611b59565b60405180910390f35b6102aa60048036038101906102a59190611d64565b610762565b005b6102c660048036038101906102c19190611ece565b610778565b005b6102e260048036038101906102dd9190611bac565b610795565b6040516102ef9190611b59565b60405180910390f35b6103006108a0565b60405161030d9190611d21565b60405180910390f35b610330600480360381019061032b9190611f4e565b6108a6565b60405161033d9190611ad0565b60405180910390f35b610360600480360381019061035b919061202a565b610934565b60405161036d9190611d21565b60405180910390f35b610390600480360381019061038b9190611ce7565b610978565b005b5f634906490660e01b7bffffffffffffffffffffffffffffffffffffffffffffffffffffffff1916827bffffffffffffffffffffffffffffffffffffffffffffffffffffffff191614806103eb57506103ea826109fc565b5b9050919050565b60605f8054610400906120b1565b80601f016020809104026020016040519081016040528092919081815260200182805461042c906120b1565b80156104775780601f1061044e57610100808354040283529160200191610477565b820191905f5260205f20905b81548152906001019060200180831161045a57829003601f168201915b5050505050905090565b5f61048b82610add565b5061049582610b63565b9050919050565b6104ae82826104a9610b9c565b610ba3565b5050565b5f73ffffffffffffffffffffffffffffffffffffffff168273ffffffffffffffffffffffffffffffffffffffff1603610522575f6040517f64a0ae920000000000000000000000000000000000000000000000000000000081526004016105199190611c16565b60405180910390fd5b5f6105358383610530610b9c565b610bb5565b90508373ffffffffffffffffffffffffffffffffffffffff168173ffffffffffffffffffffffffffffffffffffffff16146105ab578382826040517f64283d7b0000000000000000000000000000000000000000000000000000000081526004016105a2939291906120e1565b60405180910390fd5b50505050565b6105cb83838360405180602001604052805f815250610778565b505050565b5f6105da82610add565b9050919050565b5f8073ffffffffffffffffffffffffffffffffffffffff168273ffffffffffffffffffffffffffffffffffffffff1603610652575f6040517f89c62b640000000000000000000000000000000000000000000000000000000081526004016106499190611c16565b60405180910390fd5b60035f8373ffffffffffffffffffffffffffffffffffffffff1673ffffffffffffffffffffffffffffffffffffffff1681526020019081526020015f20549050919050565b61069f610dc0565b6106a85f610e47565b565b5f60075f9054906101000a900473ffffffffffffffffffffffffffffffffffffffff16905090565b6060600180546106e1906120b1565b80601f016020809104026020016040519081016040528092919081815260200182805461070d906120b1565b80156107585780601f1061072f57610100808354040283529160200191610758565b820191905f5260205f20905b81548152906001019060200180831161073b57829003601f168201915b5050505050905090565b61077461076d610b9c565b8383610f0a565b5050565b6107838484846104b2565b61078f84848484611073565b50505050565b60606107a082610add565b505f60065f8481526020019081526020015f2080546107be906120b1565b80601f01602080910402602001604051908101604052809291908181526020018280546107ea906120b1565b80156108355780601f1061080c57610100808354040283529160200191610835565b820191905f5260205f20905b81548152906001019060200180831161081857829003601f168201915b505050505090505f610845611225565b90505f81510361085957819250505061089b565b5f8251111561088d578082604051602001610875929190612150565b6040516020818303038152906040529250505061089b565b6108968461123b565b925050505b919050565b60085481565b5f60055f8473ffffffffffffffffffffffffffffffffffffffff1673ffffffffffffffffffffffffffffffffffffffff1681526020019081526020015f205f8373ffffffffffffffffffffffffffffffffffffffff1673ffffffffffffffffffffffffffffffffffffffff1681526020019081526020015f205f9054906101000a900460ff16905092915050565b5f61093d610dc0565b5f600854905061094d84826112a1565b61095781846112be565b60085f815480929190610969906121a0565b91905055508091505092915050565b610980610dc0565b5f73ffffffffffffffffffffffffffffffffffffffff168173ffffffffffffffffffffffffffffffffffffffff16036109f0575f6040517f1e4fbdf70000000000000000000000000000000000000000000000000000000081526004016109e79190611c16565b60405180910390fd5b6109f981610e47565b50565b5f7f80ac58cd000000000000000000000000000000000000000000000000000000007bffffffffffffffffffffffffffffffffffffffffffffffffffffffff1916827bffffffffffffffffffffffffffffffffffffffffffffffffffffffff19161480610ac657507f5b5e139f000000000000000000000000000000000000000000000000000000007bffffffffffffffffffffffffffffffffffffffffffffffffffffffff1916827bffffffffffffffffffffffffffffffffffffffffffffffffffffffff1916145b80610ad65750610ad582611318565b5b9050919050565b5f80610ae883611381565b90505f73ffffffffffffffffffffffffffffffffffffffff168173ffffffffffffffffffffffffffffffffffffffff1603610b5a57826040517f7e273289000000000000000000000000000000000000000000000000000000008152600401610b519190611d21565b60405180910390fd5b80915050919050565b5f60045f8381526020019081526020015f205f9054906101000a900473ffffffffffffffffffffffffffffffffffffffff169050919050565b5f33905090565b610bb083838360016113ba565b505050565b5f80610bc084611381565b90505f73ffffffffffffffffffffffffffffffffffffffff168373ffffffffffffffffffffffffffffffffffffffff1614610c0157610c00818486611579565b5b5f73ffffffffffffffffffffffffffffffffffffffff168173ffffffffffffffffffffffffffffffffffffffff1614610c8c57610c405f855f806113ba565b600160035f8373ffffffffffffffffffffffffffffffffffffffff1673ffffffffffffffffffffffffffffffffffffffff1681526020019081526020015f205f82825403925050819055505b5f73ffffffffffffffffffffffffffffffffffffffff168573ffffffffffffffffffffffffffffffffffffffff1614610d0b57600160035f8773ffffffffffffffffffffffffffffffffffffffff1673ffffffffffffffffffffffffffffffffffffffff1681526020019081526020015f205f82825401925050819055505b8460025f8681526020019081526020015f205f6101000a81548173ffffffffffffffffffffffffffffffffffffffff021916908373ffffffffffffffffffffffffffffffffffffffff160217905550838573ffffffffffffffffffffffffffffffffffffffff168273ffffffffffffffffffffffffffffffffffffffff167fddf252ad1be2c89b69c2b068fc378daa952ba7f163c4a11628f55a4df523b3ef60405160405180910390a4809150509392505050565b610dc8610b9c565b73ffffffffffffffffffffffffffffffffffffffff16610de66106aa565b73ffffffffffffffffffffffffffffffffffffffff1614610e4557610e09610b9c565b6040517f118cdaa7000000000000000000000000000000000000000000000000000000008152600401610e3c9190611c16565b60405180910390fd5b565b5f60075f9054906101000a900473ffffffffffffffffffffffffffffffffffffffff1690508160075f6101000a81548173ffffffffffffffffffffffffffffffffffffffff021916908373ffffffffffffffffffffffffffffffffffffffff1602179055508173ffffffffffffffffffffffffffffffffffffffff168173ffffffffffffffffffffffffffffffffffffffff167f8be0079c531659141344cd1fd0a4f28419497f9722a3daafe3b4186f6b6457e060405160405180910390a35050565b5f73ffffffffffffffffffffffffffffffffffffffff168273ffffffffffffffffffffffffffffffffffffffff1603610f7a57816040517f5b08ba18000000000000000000000000000000000000000000000000000000008152600401610f719190611c16565b60405180910390fd5b8060055f8573ffffffffffffffffffffffffffffffffffffffff1673ffffffffffffffffffffffffffffffffffffffff1681526020019081526020015f205f8473ffffffffffffffffffffffffffffffffffffffff1673ffffffffffffffffffffffffffffffffffffffff1681526020019081526020015f205f6101000a81548160ff0219169083151502179055508173ffffffffffffffffffffffffffffffffffffffff168373ffffffffffffffffffffffffffffffffffffffff167f17307eab39ab6107e8899845ad3d59bd9653f200f220920489ca2b5937696c31836040516110669190611ad0565b60405180910390a3505050565b5f8373ffffffffffffffffffffffffffffffffffffffff163b111561121f578273ffffffffffffffffffffffffffffffffffffffff1663150b7a026110b6610b9c565b8685856040518563ffffffff1660e01b81526004016110d89493929190612239565b6020604051808303815f875af192505050801561111357506040513d601f19601f820116820180604052508101906111109190612297565b60015b611194573d805f8114611141576040519150601f19603f3d011682016040523d82523d5f602084013e611146565b606091505b505f81510361118c57836040517f64a0ae920000000000000000000000000000000000000000000000000000000081526004016111839190611c16565b60405180910390fd5b805181602001fd5b63150b7a0260e01b7bffffffffffffffffffffffffffffffffffffffffffffffffffffffff1916817bffffffffffffffffffffffffffffffffffffffffffffffffffffffff19161461121d57836040517f64a0ae920000000000000000000000000000000000000000000000000000000081526004016112149190611c16565b60405180910390fd5b505b50505050565b606060405180602001604052805f815250905090565b606061124682610add565b505f611250611225565b90505f81511161126e5760405180602001604052805f815250611299565b806112788461163c565b604051602001611289929190612150565b6040516020818303038152906040525b915050919050565b6112ba828260405180602001604052805f815250611706565b5050565b8060065f8481526020019081526020015f2090816112dc919061245f565b507ff8e1a15aba9398e019f0b49df1a4fde98ee17ae345cb5f6b5e2c27f5033e8ce78260405161130c9190611d21565b60405180910390a15050565b5f7f01ffc9a7000000000000000000000000000000000000000000000000000000007bffffffffffffffffffffffffffffffffffffffffffffffffffffffff1916827bffffffffffffffffffffffffffffffffffffffffffffffffffffffff1916149050919050565b5f60025f8381526020019081526020015f205f9054906101000a900473ffffffffffffffffffffffffffffffffffffffff169050919050565b80806113f257505f73ffffffffffffffffffffffffffffffffffffffff168273ffffffffffffffffffffffffffffffffffffffff1614155b15611524575f61140184610add565b90505f73ffffffffffffffffffffffffffffffffffffffff168373ffffffffffffffffffffffffffffffffffffffff161415801561146b57508273ffffffffffffffffffffffffffffffffffffffff168173ffffffffffffffffffffffffffffffffffffffff1614155b801561147e575061147c81846108a6565b155b156114c057826040517fa9fbf51f0000000000000000000000000000000000000000000000000000000081526004016114b79190611c16565b60405180910390fd5b811561152257838573ffffffffffffffffffffffffffffffffffffffff168273ffffffffffffffffffffffffffffffffffffffff167f8c5be1e5ebec7d5bd14f71427d1e84f3dd0314c0f7b2291e5b200ac8c7c3b92560405160405180910390a45b505b8360045f8581526020019081526020015f205f6101000a81548173ffffffffffffffffffffffffffffffffffffffff021916908373ffffffffffffffffffffffffffffffffffffffff16021790555050505050565b611584838383611721565b611637575f73ffffffffffffffffffffffffffffffffffffffff168373ffffffffffffffffffffffffffffffffffffffff16036115f857806040517f7e2732890000000000000000000000000000000000000000000000000000000081526004016115ef9190611d21565b60405180910390fd5b81816040517f177e802f00000000000000000000000000000000000000000000000000000000815260040161162e92919061252e565b60405180910390fd5b505050565b60605f600161164a846117e1565b0190505f8167ffffffffffffffff81111561166857611667611daa565b5b6040519080825280601f01601f19166020018201604052801561169a5781602001600182028036833780820191505090505b5090505f82602001820190505b6001156116fb578080600190039150507f3031323334353637383961626364656600000000000000000000000000000000600a86061a8153600a85816116f0576116ef612555565b5b0494505f85036116a7575b819350505050919050565b6117108383611932565b61171c5f848484611073565b505050565b5f8073ffffffffffffffffffffffffffffffffffffffff168373ffffffffffffffffffffffffffffffffffffffff16141580156117d857508273ffffffffffffffffffffffffffffffffffffffff168473ffffffffffffffffffffffffffffffffffffffff161480611799575061179884846108a6565b5b806117d757508273ffffffffffffffffffffffffffffffffffffffff166117bf83610b63565b73ffffffffffffffffffffffffffffffffffffffff16145b5b90509392505050565b5f805f90507a184f03e93ff9f4daa797ed6e38ed64bf6a1f010000000000000000831061183d577a184f03e93ff9f4daa797ed6e38ed64bf6a1f010000000000000000838161183357611832612555565b5b0492506040810190505b6d04ee2d6d415b85acef8100000000831061187a576d04ee2d6d415b85acef810000000083816118705761186f612555565b5b0492506020810190505b662386f26fc1000083106118a957662386f26fc10000838161189f5761189e612555565b5b0492506010810190505b6305f5e10083106118d2576305f5e10083816118c8576118c7612555565b5b0492506008810190505b61271083106118f75761271083816118ed576118ec612555565b5b0492506004810190505b6064831061191a57606483816119105761190f612555565b5b0492506002810190505b600a8310611929576001810190505b80915050919050565b5f73ffffffffffffffffffffffffffffffffffffffff168273ffffffffffffffffffffffffffffffffffffffff16036119a2575f6040517f64a0ae920000000000000000000000000000000000000000000000000000000081526004016119999190611c16565b60405180910390fd5b5f6119ae83835f610bb5565b90505f73ffffffffffffffffffffffffffffffffffffffff168173ffffffffffffffffffffffffffffffffffffffff1614611a20575f6040517f73c6ac6e000000000000000000000000000000000000000000000000000000008152600401611a179190611c16565b60405180910390fd5b505050565b5f604051905090565b5f80fd5b5f80fd5b5f7fffffffff0000000000000000000000000000000000000000000000000000000082169050919050565b611a6a81611a36565b8114611a74575f80fd5b50565b5f81359050611a8581611a61565b92915050565b5f60208284031215611aa057611a9f611a2e565b5b5f611aad84828501611a77565b91505092915050565b5f8115159050919050565b611aca81611ab6565b82525050565b5f602082019050611ae35f830184611ac1565b92915050565b5f81519050919050565b5f82825260208201905092915050565b8281835e5f83830152505050565b5f601f19601f8301169050919050565b5f611b2b82611ae9565b611b358185611af3565b9350611b45818560208601611b03565b611b4e81611b11565b840191505092915050565b5f6020820190508181035f830152611b718184611b21565b905092915050565b5f819050919050565b611b8b81611b79565b8114611b95575f80fd5b50565b5f81359050611ba681611b82565b92915050565b5f60208284031215611bc157611bc0611a2e565b5b5f611bce84828501611b98565b91505092915050565b5f73ffffffffffffffffffffffffffffffffffffffff82169050919050565b5f611c0082611bd7565b9050919050565b611c1081611bf6565b82525050565b5f602082019050611c295f830184611c07565b92915050565b611c3881611bf6565b8114611c42575f80fd5b50565b5f81359050611c5381611c2f565b92915050565b5f8060408385031215611c6f57611c6e611a2e565b5b5f611c7c85828601611c45565b9250506020611c8d85828601611b98565b9150509250929050565b5f805f60608486031215611cae57611cad611a2e565b5b5f611cbb86828701611c45565b9350506020611ccc86828701611c45565b9250506040611cdd86828701611b98565b9150509250925092565b5f60208284031215611cfc57611cfb611a2e565b5b5f611d0984828501611c45565b91505092915050565b611d1b81611b79565b82525050565b5f602082019050611d345f830184611d12565b92915050565b611d4381611ab6565b8114611d4d575f80fd5b50565b5f81359050611d5e81611d3a565b92915050565b5f8060408385031215611d7a57611d79611a2e565b5b5f611d8785828601611c45565b9250506020611d9885828601611d50565b9150509250929050565b5f80fd5b5f80fd5b7f4e487b71000000000000000000000000000000000000000000000000000000005f52604160045260245ffd5b611de082611b11565b810181811067ffffffffffffffff82111715611dff57611dfe611daa565b5b80604052505050565b5f611e11611a25565b9050611e1d8282611dd7565b919050565b5f67ffffffffffffffff821115611e3c57611e3b611daa565b5b611e4582611b11565b9050602081019050919050565b828183375f83830152505050565b5f611e72611e6d84611e22565b611e08565b905082815260208101848484011115611e8e57611e8d611da6565b5b611e99848285611e52565b509392505050565b5f82601f830112611eb557611eb4611da2565b5b8135611ec5848260208601611e60565b91505092915050565b5f805f8060808587031215611ee657611ee5611a2e565b5b5f611ef387828801611c45565b9450506020611f0487828801611c45565b9350506040611f1587828801611b98565b925050606085013567ffffffffffffffff811115611f3657611f35611a32565b5b611f4287828801611ea1565b91505092959194509250565b5f8060408385031215611f6457611f63611a2e565b5b5f611f7185828601611c45565b9250506020611f8285828601611c45565b9150509250929050565b5f67ffffffffffffffff821115611fa657611fa5611daa565b5b611faf82611b11565b9050602081019050919050565b5f611fce611fc984611f8c565b611e08565b905082815260208101848484011115611fea57611fe9611da6565b5b611ff5848285611e52565b509392505050565b5f82601f83011261201157612010611da2565b5b8135612021848260208601611fbc565b91505092915050565b5f80604083850312156120405761203f611a2e565b5b5f61204d85828601611c45565b925050602083013567ffffffffffffffff81111561206e5761206d611a32565b5b61207a85828601611ffd565b9150509250929050565b7f4e487b71000000000000000000000000000000000000000000000000000000005f52602260045260245ffd5b5f60028204905060018216806120c857607f821691505b6020821081036120db576120da612084565b5b50919050565b5f6060820190506120f45f830186611c07565b6121016020830185611d12565b61210e6040830184611c07565b949350505050565b5f81905092915050565b5f61212a82611ae9565b6121348185612116565b9350612144818560208601611b03565b80840191505092915050565b5f61215b8285612120565b91506121678284612120565b91508190509392505050565b7f4e487b71000000000000000000000000000000000000000000000000000000005f52601160045260245ffd5b5f6121aa82611b79565b91507fffffffffffffffffffffffffffffffffffffffffffffffffffffffffffffffff82036121dc576121db612173565b5b600182019050919050565b5f81519050919050565b5f82825260208201905092915050565b5f61220b826121e7565b61221581856121f1565b9350612225818560208601611b03565b61222e81611b11565b840191505092915050565b5f60808201905061224c5f830187611c07565b6122596020830186611c07565b6122666040830185611d12565b81810360608301526122788184612201565b905095945050505050565b5f8151905061229181611a61565b92915050565b5f602082840312156122ac576122ab611a2e565b5b5f6122b984828501612283565b91505092915050565b5f819050815f5260205f209050919050565b5f6020601f8301049050919050565b5f82821b905092915050565b5f6008830261231e7fffffffffffffffffffffffffffffffffffffffffffffffffffffffffffffffff826122e3565b61232886836122e3565b95508019841693508086168417925050509392505050565b5f819050919050565b5f61236361235e61235984611b79565b612340565b611b79565b9050919050565b5f819050919050565b61237c83612349565b6123906123888261236a565b8484546122ef565b825550505050565b5f90565b6123a4612398565b6123af818484612373565b505050565b5b818110156123d2576123c75f8261239c565b6001810190506123b5565b5050565b601f821115612417576123e8816122c2565b6123f1846122d4565b81016020851015612400578190505b61241461240c856122d4565b8301826123b4565b50505b505050565b5f82821c905092915050565b5f6124375f198460080261241c565b1980831691505092915050565b5f61244f8383612428565b9150826002028217905092915050565b61246882611ae9565b67ffffffffffffffff81111561248157612480611daa565b5b61248b82546120b1565b6124968282856123d6565b5f60209050601f8311600181146124c7575f84156124b5578287015190505b6124bf8582612444565b865550612526565b601f1984166124d5866122c2565b5f5b828110156124fc578489015182556001820191506020850194506020810190506124d7565b868310156125195784890151612515601f891682612428565b8355505b6001600288020188555050505b505050505050565b5f6040820190506125415f830185611c07565b61254e6020830184611d12565b9392505050565b7f4e487b71000000000000000000000000000000000000000000000000000000005f52601260045260245ffdfea2646970667358221220dbd7648354732277c03aef8777aa6f262bd4f26462bab80df2b7007fddd3f26c64736f6c634300081a0033",
  "immutableReferences": {},
  "source": "// SPDX-License-Identifier: MIT\npragma solidity ^0.8.20;\n\nimport \"@openzeppelin/contracts/token/ERC721/extensions/ERC721URIStorage.sol\";\nimport \"@openzeppelin/contracts/access/Ownable.sol\";\n\ncontract MyNFT is ERC721URIStorage, Ownable {\n    uint256 public tokenCounter;\n\n    constructor() ERC721(\"MyNFT\", \"MNFT\") Ownable(msg.sender) {\n        tokenCounter = 0;\n    }\n\n    function mintNFT(address recipient, string memory tokenURI) public onlyOwner returns (uint256) {\n        uint256 newItemId = tokenCounter;\n        _safeMint(recipient, newItemId);\n        _setTokenURI(newItemId, tokenURI);\n        tokenCounter++;\n        return newItemId;\n    }\n}\n",
  "sourcePath": "/project/workspace/LfTokenDapp/contracts/MyNFT.sol",
  "compiler": {
    "name": "solc",
    "version": "0.8.26+commit.8a97fa7a.Emscripten.clang"
  },
  "schemaVersion": "3.4.16",
  "updatedAt": "2024-08-29T12:17:56.338Z",
  "devdoc": {
    "errors": {
      "ERC721IncorrectOwner(address,uint256,address)": [
        {
          "details": "Indicates an error related to the ownership over a particular token. Used in transfers.",
          "params": {
            "owner": "Address of the current owner of a token.",
            "sender": "Address whose tokens are being transferred.",
            "tokenId": "Identifier number of a token."
          }
        }
      ],
      "ERC721InsufficientApproval(address,uint256)": [
        {
          "details": "Indicates a failure with the `operator`s approval. Used in transfers.",
          "params": {
            "operator": "Address that may be allowed to operate on tokens without being their owner.",
            "tokenId": "Identifier number of a token."
          }
        }
      ],
      "ERC721InvalidApprover(address)": [
        {
          "details": "Indicates a failure with the `approver` of a token to be approved. Used in approvals.",
          "params": {
            "approver": "Address initiating an approval operation."
          }
        }
      ],
      "ERC721InvalidOperator(address)": [
        {
          "details": "Indicates a failure with the `operator` to be approved. Used in approvals.",
          "params": {
            "operator": "Address that may be allowed to operate on tokens without being their owner."
          }
        }
      ],
      "ERC721InvalidOwner(address)": [
        {
          "details": "Indicates that an address can't be an owner. For example, `address(0)` is a forbidden owner in EIP-20. Used in balance queries.",
          "params": {
            "owner": "Address of the current owner of a token."
          }
        }
      ],
      "ERC721InvalidReceiver(address)": [
        {
          "details": "Indicates a failure with the token `receiver`. Used in transfers.",
          "params": {
            "receiver": "Address to which tokens are being transferred."
          }
        }
      ],
      "ERC721InvalidSender(address)": [
        {
          "details": "Indicates a failure with the token `sender`. Used in transfers.",
          "params": {
            "sender": "Address whose tokens are being transferred."
          }
        }
      ],
      "ERC721NonexistentToken(uint256)": [
        {
          "details": "Indicates a `tokenId` whose `owner` is the zero address.",
          "params": {
            "tokenId": "Identifier number of a token."
          }
        }
      ],
      "OwnableInvalidOwner(address)": [
        {
          "details": "The owner is not a valid owner account. (eg. `address(0)`)"
        }
      ],
      "OwnableUnauthorizedAccount(address)": [
        {
          "details": "The caller account is not authorized to perform an operation."
        }
      ]
    },
    "events": {
      "Approval(address,address,uint256)": {
        "details": "Emitted when `owner` enables `approved` to manage the `tokenId` token."
      },
      "ApprovalForAll(address,address,bool)": {
        "details": "Emitted when `owner` enables or disables (`approved`) `operator` to manage all of its assets."
      },
      "BatchMetadataUpdate(uint256,uint256)": {
        "details": "This event emits when the metadata of a range of tokens is changed. So that the third-party platforms such as NFT market could timely update the images and related attributes of the NFTs."
      },
      "MetadataUpdate(uint256)": {
        "details": "This event emits when the metadata of a token is changed. So that the third-party platforms such as NFT market could timely update the images and related attributes of the NFT."
      },
      "Transfer(address,address,uint256)": {
        "details": "Emitted when `tokenId` token is transferred from `from` to `to`."
      }
    },
    "kind": "dev",
    "methods": {
      "approve(address,uint256)": {
        "details": "See {IERC721-approve}."
      },
      "balanceOf(address)": {
        "details": "See {IERC721-balanceOf}."
      },
      "getApproved(uint256)": {
        "details": "See {IERC721-getApproved}."
      },
      "isApprovedForAll(address,address)": {
        "details": "See {IERC721-isApprovedForAll}."
      },
      "name()": {
        "details": "See {IERC721Metadata-name}."
      },
      "owner()": {
        "details": "Returns the address of the current owner."
      },
      "ownerOf(uint256)": {
        "details": "See {IERC721-ownerOf}."
      },
      "renounceOwnership()": {
        "details": "Leaves the contract without owner. It will not be possible to call `onlyOwner` functions. Can only be called by the current owner. NOTE: Renouncing ownership will leave the contract without an owner, thereby disabling any functionality that is only available to the owner."
      },
      "safeTransferFrom(address,address,uint256)": {
        "details": "See {IERC721-safeTransferFrom}."
      },
      "safeTransferFrom(address,address,uint256,bytes)": {
        "details": "See {IERC721-safeTransferFrom}."
      },
      "setApprovalForAll(address,bool)": {
        "details": "See {IERC721-setApprovalForAll}."
      },
      "supportsInterface(bytes4)": {
        "details": "See {IERC165-supportsInterface}"
      },
      "symbol()": {
        "details": "See {IERC721Metadata-symbol}."
      },
      "tokenURI(uint256)": {
        "details": "See {IERC721Metadata-tokenURI}."
      },
      "transferFrom(address,address,uint256)": {
        "details": "See {IERC721-transferFrom}."
      },
      "transferOwnership(address)": {
        "details": "Transfers ownership of the contract to a new account (`newOwner`). Can only be called by the current owner."
      }
    },
    "version": 1
  },
  "userdoc": {
    "kind": "user",
    "methods": {},
    "version": 1
  }
}