{
    "_format": "hh-sol-artifact-1",
    "contractName": "MyNFT",
    "sourceName": "contracts/MyNFT.sol",
    "abi": [
        {
            "inputs": [],
            "stateMutability": "nonpayable",
            "type": "constructor"
        },
        {
            "inputs": [
                {
                    "internalType": "address",
                    "name": "sender",
                    "type": "address"
                },
                {
                    "internalType": "uint256",
                    "name": "tokenId",
                    "type": "uint256"
                },
                {
                    "internalType": "address",
                    "name": "owner",
                    "type": "address"
                }
            ],
            "name": "ERC721IncorrectOwner",
            "type": "error"
        },
        {
            "inputs": [
                {
                    "internalType": "address",
                    "name": "operator",
                    "type": "address"
                },
                {
                    "internalType": "uint256",
                    "name": "tokenId",
                    "type": "uint256"
                }
            ],
            "name": "ERC721InsufficientApproval",
            "type": "error"
        },
        {
            "inputs": [
                {
                    "internalType": "address",
                    "name": "approver",
                    "type": "address"
                }
            ],
            "name": "ERC721InvalidApprover",
            "type": "error"
        },
        {
            "inputs": [
                {
                    "internalType": "address",
                    "name": "operator",
                    "type": "address"
                }
            ],
            "name": "ERC721InvalidOperator",
            "type": "error"
        },
        {
            "inputs": [
                {
                    "internalType": "address",
                    "name": "owner",
                    "type": "address"
                }
            ],
            "name": "ERC721InvalidOwner",
            "type": "error"
        },
        {
            "inputs": [
                {
                    "internalType": "address",
                    "name": "receiver",
                    "type": "address"
                }
            ],
            "name": "ERC721InvalidReceiver",
            "type": "error"
        },
        {
            "inputs": [
                {
                    "internalType": "address",
                    "name": "sender",
                    "type": "address"
                }
            ],
            "name": "ERC721InvalidSender",
            "type": "error"
        },
        {
            "inputs": [
                {
                    "internalType": "uint256",
                    "name": "tokenId",
                    "type": "uint256"
                }
            ],
            "name": "ERC721NonexistentToken",
            "type": "error"
        },
        {
            "inputs": [
                {
                    "internalType": "address",
                    "name": "owner",
                    "type": "address"
                }
            ],
            "name": "OwnableInvalidOwner",
            "type": "error"
        },
        {
            "inputs": [
                {
                    "internalType": "address",
                    "name": "account",
                    "type": "address"
                }
            ],
            "name": "OwnableUnauthorizedAccount",
            "type": "error"
        },
        {
            "anonymous": false,
            "inputs": [
                {
                    "indexed": true,
                    "internalType": "address",
                    "name": "owner",
                    "type": "address"
                },
                {
                    "indexed": true,
                    "internalType": "address",
                    "name": "approved",
                    "type": "address"
                },
                {
                    "indexed": true,
                    "internalType": "uint256",
                    "name": "tokenId",
                    "type": "uint256"
                }
            ],
            "name": "Approval",
            "type": "event"
        },
        {
            "anonymous": false,
            "inputs": [
                {
                    "indexed": true,
                    "internalType": "address",
                    "name": "owner",
                    "type": "address"
                },
                {
                    "indexed": true,
                    "internalType": "address",
                    "name": "operator",
                    "type": "address"
                },
                {
                    "indexed": false,
                    "internalType": "bool",
                    "name": "approved",
                    "type": "bool"
                }
            ],
            "name": "ApprovalForAll",
            "type": "event"
        },
        {
            "anonymous": false,
            "inputs": [
                {
                    "indexed": false,
                    "internalType": "uint256",
                    "name": "_fromTokenId",
                    "type": "uint256"
                },
                {
                    "indexed": false,
                    "internalType": "uint256",
                    "name": "_toTokenId",
                    "type": "uint256"
                }
            ],
            "name": "BatchMetadataUpdate",
            "type": "event"
        },
        {
            "anonymous": false,
            "inputs": [
                {
                    "indexed": false,
                    "internalType": "uint256",
                    "name": "_tokenId",
                    "type": "uint256"
                }
            ],
            "name": "MetadataUpdate",
            "type": "event"
        },
        {
            "anonymous": false,
            "inputs": [
                {
                    "indexed": true,
                    "internalType": "address",
                    "name": "previousOwner",
                    "type": "address"
                },
                {
                    "indexed": true,
                    "internalType": "address",
                    "name": "newOwner",
                    "type": "address"
                }
            ],
            "name": "OwnershipTransferred",
            "type": "event"
        },
        {
            "anonymous": false,
            "inputs": [
                {
                    "indexed": true,
                    "internalType": "address",
                    "name": "from",
                    "type": "address"
                },
                {
                    "indexed": true,
                    "internalType": "address",
                    "name": "to",
                    "type": "address"
                },
                {
                    "indexed": true,
                    "internalType": "uint256",
                    "name": "tokenId",
                    "type": "uint256"
                }
            ],
            "name": "Transfer",
            "type": "event"
        },
        {
            "inputs": [
                {
                    "internalType": "address",
                    "name": "to",
                    "type": "address"
                },
                {
                    "internalType": "uint256",
                    "name": "tokenId",
                    "type": "uint256"
                }
            ],
            "name": "approve",
            "outputs": [],
            "stateMutability": "nonpayable",
            "type": "function"
        },
        {
            "inputs": [
                {
                    "internalType": "address",
                    "name": "owner",
                    "type": "address"
                }
            ],
            "name": "balanceOf",
            "outputs": [
                {
                    "internalType": "uint256",
                    "name": "",
                    "type": "uint256"
                }
            ],
            "stateMutability": "view",
            "type": "function"
        },
        {
            "inputs": [
                {
                    "internalType": "uint256",
                    "name": "tokenId",
                    "type": "uint256"
                }
            ],
            "name": "getApproved",
            "outputs": [
                {
                    "internalType": "address",
                    "name": "",
                    "type": "address"
                }
            ],
            "stateMutability": "view",
            "type": "function"
        },
        {
            "inputs": [
                {
                    "internalType": "address",
                    "name": "owner",
                    "type": "address"
                },
                {
                    "internalType": "address",
                    "name": "operator",
                    "type": "address"
                }
            ],
            "name": "isApprovedForAll",
            "outputs": [
                {
                    "internalType": "bool",
                    "name": "",
                    "type": "bool"
                }
            ],
            "stateMutability": "view",
            "type": "function"
        },
        {
            "inputs": [
                {
                    "internalType": "address",
                    "name": "recipient",
                    "type": "address"
                },
                {
                    "internalType": "string",
                    "name": "tokenURI",
                    "type": "string"
                }
            ],
            "name": "mintNFT",
            "outputs": [],
            "stateMutability": "nonpayable",
            "type": "function"
        },
        {
            "inputs": [],
            "name": "name",
            "outputs": [
                {
                    "internalType": "string",
                    "name": "",
                    "type": "string"
                }
            ],
            "stateMutability": "view",
            "type": "function"
        },
        {
            "inputs": [],
            "name": "owner",
            "outputs": [
                {
                    "internalType": "address",
                    "name": "",
                    "type": "address"
                }
            ],
            "stateMutability": "view",
            "type": "function"
        },
        {
            "inputs": [
                {
                    "internalType": "uint256",
                    "name": "tokenId",
                    "type": "uint256"
                }
            ],
            "name": "ownerOf",
            "outputs": [
                {
                    "internalType": "address",
                    "name": "",
                    "type": "address"
                }
            ],
            "stateMutability": "view",
            "type": "function"
        },
        {
            "inputs": [],
            "name": "renounceOwnership",
            "outputs": [],
            "stateMutability": "nonpayable",
            "type": "function"
        },
        {
            "inputs": [
                {
                    "internalType": "address",
                    "name": "from",
                    "type": "address"
                },
                {
                    "internalType": "address",
                    "name": "to",
                    "type": "address"
                },
                {
                    "internalType": "uint256",
                    "name": "tokenId",
                    "type": "uint256"
                }
            ],
            "name": "safeTransferFrom",
            "outputs": [],
            "stateMutability": "nonpayable",
            "type": "function"
        },
        {
            "inputs": [
                {
                    "internalType": "address",
                    "name": "from",
                    "type": "address"
                },
                {
                    "internalType": "address",
                    "name": "to",
                    "type": "address"
                },
                {
                    "internalType": "uint256",
                    "name": "tokenId",
                    "type": "uint256"
                },
                {
                    "internalType": "bytes",
                    "name": "data",
                    "type": "bytes"
                }
            ],
            "name": "safeTransferFrom",
            "outputs": [],
            "stateMutability": "nonpayable",
            "type": "function"
        },
        {
            "inputs": [
                {
                    "internalType": "address",
                    "name": "operator",
                    "type": "address"
                },
                {
                    "internalType": "bool",
                    "name": "approved",
                    "type": "bool"
                }
            ],
            "name": "setApprovalForAll",
            "outputs": [],
            "stateMutability": "nonpayable",
            "type": "function"
        },
        {
            "inputs": [
                {
                    "internalType": "bytes4",
                    "name": "interfaceId",
                    "type": "bytes4"
                }
            ],
            "name": "supportsInterface",
            "outputs": [
                {
                    "internalType": "bool",
                    "name": "",
                    "type": "bool"
                }
            ],
            "stateMutability": "view",
            "type": "function"
        },
        {
            "inputs": [],
            "name": "symbol",
            "outputs": [
                {
                    "internalType": "string",
                    "name": "",
                    "type": "string"
                }
            ],
            "stateMutability": "view",
            "type": "function"
        },
        {
            "inputs": [
                {
                    "internalType": "uint256",
                    "name": "tokenId",
                    "type": "uint256"
                }
            ],
            "name": "tokenURI",
            "outputs": [
                {
                    "internalType": "string",
                    "name": "",
                    "type": "string"
                }
            ],
            "stateMutability": "view",
            "type": "function"
        },
        {
            "inputs": [
                {
                    "internalType": "address",
                    "name": "from",
                    "type": "address"
                },
                {
                    "internalType": "address",
                    "name": "to",
                    "type": "address"
                },
                {
                    "internalType": "uint256",
                    "name": "tokenId",
                    "type": "uint256"
                }
            ],
            "name": "transferFrom",
            "outputs": [],
            "stateMutability": "nonpayable",
            "type": "function"
        },
        {
            "inputs": [
                {
                    "internalType": "address",
                    "name": "newOwner",
                    "type": "address"
                }
            ],
            "name": "transferOwnership",
            "outputs": [],
            "stateMutability": "nonpayable",
            "type": "function"
        }
    ],
    "bytecode": "0x60806040523480156200001157600080fd5b503360405180604001604052806005815260200164135e53919560da1b815250604051806040016040528060048152602001631353919560e21b81525081600090816200005f9190620001b0565b5060016200006e8282620001b0565b5050506001600160a01b038116620000a057604051631e4fbdf760e01b81526000600482015260240160405180910390fd5b620000ab81620000b7565b5060006008556200027c565b600780546001600160a01b038381166001600160a01b0319831681179093556040519116919082907f8be0079c531659141344cd1fd0a4f28419497f9722a3daafe3b4186f6b6457e090600090a35050565b634e487b7160e01b600052604160045260246000fd5b600181811c908216806200013457607f821691505b6020821081036200015557634e487b7160e01b600052602260045260246000fd5b50919050565b601f821115620001ab576000816000526020600020601f850160051c81016020861015620001865750805b601f850160051c820191505b81811015620001a75782815560010162000192565b5050505b505050565b81516001600160401b03811115620001cc57620001cc62000109565b620001e481620001dd84546200011f565b846200015b565b602080601f8311600181146200021c5760008415620002035750858301515b600019600386901b1c1916600185901b178555620001a7565b600085815260208120601f198616915b828110156200024d578886015182559484019460019091019084016200022c565b50858210156200026c5787850151600019600388901b60f8161c191681555b5050505050600190811b01905550565b6113fa806200028c6000396000f3fe608060405234801561001057600080fd5b506004361061010b5760003560e01c8063715018a6116100a2578063b88d4fde11610071578063b88d4fde1461021b578063c87b56dd1461022e578063e985e9c514610241578063eacabe1414610254578063f2fde38b1461026757600080fd5b8063715018a6146101e75780638da5cb5b146101ef57806395d89b4114610200578063a22cb4651461020857600080fd5b806323b872dd116100de57806323b872dd1461018d57806342842e0e146101a05780636352211e146101b357806370a08231146101c657600080fd5b806301ffc9a71461011057806306fdde0314610138578063081812fc1461014d578063095ea7b314610178575b600080fd5b61012361011e366004610ebb565b61027a565b60405190151581526020015b60405180910390f35b6101406102a5565b60405161012f9190610f28565b61016061015b366004610f3b565b610337565b6040516001600160a01b03909116815260200161012f565b61018b610186366004610f70565b610360565b005b61018b61019b366004610f9a565b61036f565b61018b6101ae366004610f9a565b6103ff565b6101606101c1366004610f3b565b61041f565b6101d96101d4366004610fd6565b61042a565b60405190815260200161012f565b61018b610472565b6007546001600160a01b0316610160565b610140610486565b61018b610216366004610ff1565b610495565b61018b6102293660046110b9565b6104a0565b61014061023c366004610f3b565b6104b7565b61012361024f366004611135565b6105c8565b61018b610262366004611168565b6105f6565b61018b610275366004610fd6565b61062f565b60006001600160e01b03198216632483248360e11b148061029f575061029f8261066d565b92915050565b6060600080546102b4906111ca565b80601f01602080910402602001604051908101604052809291908181526020018280546102e0906111ca565b801561032d5780601f106103025761010080835404028352916020019161032d565b820191906000526020600020905b81548152906001019060200180831161031057829003601f168201915b5050505050905090565b6000610342826106bd565b506000828152600460205260409020546001600160a01b031661029f565b61036b8282336106f6565b5050565b6001600160a01b03821661039e57604051633250574960e11b8152600060048201526024015b60405180910390fd5b60006103ab838333610703565b9050836001600160a01b0316816001600160a01b0316146103f9576040516364283d7b60e01b81526001600160a01b0380861660048301526024820184905282166044820152606401610395565b50505050565b61041a838383604051806020016040528060008152506104a0565b505050565b600061029f826106bd565b60006001600160a01b038216610456576040516322718ad960e21b815260006004820152602401610395565b506001600160a01b031660009081526003602052604090205490565b61047a6107fc565b6104846000610829565b565b6060600180546102b4906111ca565b61036b33838361087b565b6104ab84848461036f565b6103f98484848461091a565b60606104c2826106bd565b50600082815260066020526040812080546104dc906111ca565b80601f0160208091040260200160405190810160405280929190818152602001828054610508906111ca565b80156105555780601f1061052a57610100808354040283529160200191610555565b820191906000526020600020905b81548152906001019060200180831161053857829003601f168201915b50505050509050600061057360408051602081019091526000815290565b90508051600003610585575092915050565b8151156105b757808260405160200161059f929190611204565b60405160208183030381529060405292505050919050565b6105c084610a43565b949350505050565b6001600160a01b03918216600090815260056020908152604080832093909416825291909152205460ff1690565b6105fe6107fc565b60085461060b8382610ab8565b6106158183610b1d565b6008805490600061062583611233565b9190505550505050565b6106376107fc565b6001600160a01b03811661066157604051631e4fbdf760e01b815260006004820152602401610395565b61066a81610829565b50565b60006001600160e01b031982166380ac58cd60e01b148061069e57506001600160e01b03198216635b5e139f60e01b145b8061029f57506301ffc9a760e01b6001600160e01b031983161461029f565b6000818152600260205260408120546001600160a01b03168061029f57604051637e27328960e01b815260048101849052602401610395565b61041a8383836001610b6d565b6000828152600260205260408120546001600160a01b039081169083161561073057610730818486610c73565b6001600160a01b0381161561076e5761074d600085600080610b6d565b6001600160a01b038116600090815260036020526040902080546000190190555b6001600160a01b0385161561079d576001600160a01b0385166000908152600360205260409020805460010190555b60008481526002602052604080822080546001600160a01b0319166001600160a01b0389811691821790925591518793918516917fddf252ad1be2c89b69c2b068fc378daa952ba7f163c4a11628f55a4df523b3ef91a4949350505050565b6007546001600160a01b031633146104845760405163118cdaa760e01b8152336004820152602401610395565b600780546001600160a01b038381166001600160a01b0319831681179093556040519116919082907f8be0079c531659141344cd1fd0a4f28419497f9722a3daafe3b4186f6b6457e090600090a35050565b6001600160a01b0382166108ad57604051630b61174360e31b81526001600160a01b0383166004820152602401610395565b6001600160a01b03838116600081815260056020908152604080832094871680845294825291829020805460ff191686151590811790915591519182527f17307eab39ab6107e8899845ad3d59bd9653f200f220920489ca2b5937696c31910160405180910390a3505050565b6001600160a01b0383163b156103f957604051630a85bd0160e11b81526001600160a01b0384169063150b7a029061095c90339088908790879060040161125a565b6020604051808303816000875af1925050508015610997575060408051601f3d908101601f1916820190925261099491810190611297565b60015b610a00573d8080156109c5576040519150601f19603f3d011682016040523d82523d6000602084013e6109ca565b606091505b5080516000036109f857604051633250574960e11b81526001600160a01b0385166004820152602401610395565b805181602001fd5b6001600160e01b03198116630a85bd0160e11b14610a3c57604051633250574960e11b81526001600160a01b0385166004820152602401610395565b5050505050565b6060610a4e826106bd565b506000610a6660408051602081019091526000815290565b90506000815111610a865760405180602001604052806000815250610ab1565b80610a9084610cd7565b604051602001610aa1929190611204565b6040516020818303038152906040525b9392505050565b6001600160a01b038216610ae257604051633250574960e11b815260006004820152602401610395565b6000610af083836000610703565b90506001600160a01b0381161561041a576040516339e3563760e11b815260006004820152602401610395565b6000828152600660205260409020610b358282611304565b506040518281527ff8e1a15aba9398e019f0b49df1a4fde98ee17ae345cb5f6b5e2c27f5033e8ce79060200160405180910390a15050565b8080610b8157506001600160a01b03821615155b15610c43576000610b91846106bd565b90506001600160a01b03831615801590610bbd5750826001600160a01b0316816001600160a01b031614155b8015610bd05750610bce81846105c8565b155b15610bf95760405163a9fbf51f60e01b81526001600160a01b0384166004820152602401610395565b8115610c415783856001600160a01b0316826001600160a01b03167f8c5be1e5ebec7d5bd14f71427d1e84f3dd0314c0f7b2291e5b200ac8c7c3b92560405160405180910390a45b505b5050600090815260046020526040902080546001600160a01b0319166001600160a01b0392909216919091179055565b610c7e838383610d6a565b61041a576001600160a01b038316610cac57604051637e27328960e01b815260048101829052602401610395565b60405163177e802f60e01b81526001600160a01b038316600482015260248101829052604401610395565b60606000610ce483610dcd565b600101905060008167ffffffffffffffff811115610d0457610d0461102d565b6040519080825280601f01601f191660200182016040528015610d2e576020820181803683370190505b5090508181016020015b600019016f181899199a1a9b1b9c1cb0b131b232b360811b600a86061a8153600a8504945084610d3857509392505050565b60006001600160a01b038316158015906105c05750826001600160a01b0316846001600160a01b03161480610da45750610da484846105c8565b806105c05750506000908152600460205260409020546001600160a01b03908116911614919050565b60008072184f03e93ff9f4daa797ed6e38ed64bf6a1f0160401b8310610e0c5772184f03e93ff9f4daa797ed6e38ed64bf6a1f0160401b830492506040015b6d04ee2d6d415b85acef81000000008310610e38576d04ee2d6d415b85acef8100000000830492506020015b662386f26fc100008310610e5657662386f26fc10000830492506010015b6305f5e1008310610e6e576305f5e100830492506008015b6127108310610e8257612710830492506004015b60648310610e94576064830492506002015b600a831061029f5760010192915050565b6001600160e01b03198116811461066a57600080fd5b600060208284031215610ecd57600080fd5b8135610ab181610ea5565b60005b83811015610ef3578181015183820152602001610edb565b50506000910152565b60008151808452610f14816020860160208601610ed8565b601f01601f19169290920160200192915050565b602081526000610ab16020830184610efc565b600060208284031215610f4d57600080fd5b5035919050565b80356001600160a01b0381168114610f6b57600080fd5b919050565b60008060408385031215610f8357600080fd5b610f8c83610f54565b946020939093013593505050565b600080600060608486031215610faf57600080fd5b610fb884610f54565b9250610fc660208501610f54565b9150604084013590509250925092565b600060208284031215610fe857600080fd5b610ab182610f54565b6000806040838503121561100457600080fd5b61100d83610f54565b91506020830135801515811461102257600080fd5b809150509250929050565b634e487b7160e01b600052604160045260246000fd5b600067ffffffffffffffff8084111561105e5761105e61102d565b604051601f8501601f19908116603f011681019082821181831017156110865761108661102d565b8160405280935085815286868601111561109f57600080fd5b858560208301376000602087830101525050509392505050565b600080600080608085870312156110cf57600080fd5b6110d885610f54565b93506110e660208601610f54565b925060408501359150606085013567ffffffffffffffff81111561110957600080fd5b8501601f8101871361111a57600080fd5b61112987823560208401611043565b91505092959194509250565b6000806040838503121561114857600080fd5b61115183610f54565b915061115f60208401610f54565b90509250929050565b6000806040838503121561117b57600080fd5b61118483610f54565b9150602083013567ffffffffffffffff8111156111a057600080fd5b8301601f810185136111b157600080fd5b6111c085823560208401611043565b9150509250929050565b600181811c908216806111de57607f821691505b6020821081036111fe57634e487b7160e01b600052602260045260246000fd5b50919050565b60008351611216818460208801610ed8565b83519083019061122a818360208801610ed8565b01949350505050565b60006001820161125357634e487b7160e01b600052601160045260246000fd5b5060010190565b6001600160a01b038581168252841660208201526040810183905260806060820181905260009061128d90830184610efc565b9695505050505050565b6000602082840312156112a957600080fd5b8151610ab181610ea5565b601f82111561041a576000816000526020600020601f850160051c810160208610156112dd5750805b601f850160051c820191505b818110156112fc578281556001016112e9565b505050505050565b815167ffffffffffffffff81111561131e5761131e61102d565b6113328161132c84546111ca565b846112b4565b602080601f831160018114611367576000841561134f5750858301515b600019600386901b1c1916600185901b1785556112fc565b600085815260208120601f198616915b8281101561139657888601518255948401946001909101908401611377565b50858210156113b45787850151600019600388901b60f8161c191681555b5050505050600190811b0190555056fea264697066735822122014a09d7a84dece39ba2442bd93dacdba90e162c763a31056ba19f78a7413302764736f6c63430008180033",
    "linkReferences": {},
    "deployedLinkReferences": {}
}